:020000040800F2
:10000000B05900206D0200083D400008013500088D
:10001000394000088D060008054A0008000000006D
:100020000000000000000000000000003541000852
:100030006D08000800000000414000083941000838
:1000400089020008890200088902000800000000F7
:1000500089020008890200088902000800000000E7
:1000600089020008890200080000000089020008D7
:100070008902000889020008890200088902000834
:100080008902000889020008890200088902000824
:100090008902000889020008890200088902000814
:1000A0008902000889020008890200088902000804
:1000B00089020008890200088902000889020008F4
:1000C00089020008890200088902000889020008E4
:1000D0000000000089020008890200088902000867
:1000E00089020008890200088902000889020008C4
:1000F0008902000889020008890200080000000047
:100100000000000089020008890200088902000836
:100110008902000889020008890200088902000893
:100120008902000889020008890200088902000883
:100130008902000800000000000000008902000899
:10014000890200080000000000000000000000001C
:10015000000000000000000089020008000000000C
:100160000000000000000000890200088902000869
:10017000000000000000000000000000000000007F
:10018000000000000000000000000000000000006F
:10019000000000000000000000000000000000005F
:1001A0000000000000000000890200088902000829
:1001B00089020008890200088902000889020008F3
:1001C0008902000889020008000000000000000009
:1001D000000000000000000000000000890200088C
:1001E000890200080000000000000000000000007C
:1001F00000000000000000000000000000000000FF
:1002000000000000890200088902000800000000C8
:10021000000000008902000800000000000000004B
:10022000000000000000000000000000890200083B
:10023000890200080000000000000000000000002B
:10024000000000000000000000000000890200081B
:100250008902000889020008DFF80CD000F0B2F82B
:1002600000480047255B0008B05900200748804738
:1002700007480047FEE7FEE7FEE7FEE7FEE7FEE78A
:10028000FEE7FEE7FEE7FEE7FEE7000005420008A6
:10029000590200082DE9F05F0546002092469B4672
:1002A00088460646814640241BE02846414647468C
:1002B000224600F077F853465A46C01A914110D3AF
:1002C00011461846224600F05EF82D1A67EB010829
:1002D0004F4622460120002100F055F817EB000997
:1002E0004E41201EA4F10104DFDC484631462A4677
:1002F0004346BDE8F09F10B5431A934209D28318D4
:10030000881803E010F8011D03F8011D521EF9D2F0
:1003100010BD40EA01039B0703D009E008C9121F82
:1003200008C0042AFAD203E011F8013B00F8013BAF
:10033000521EF9D210BDD2B201E000F8012B491EC5
:10034000FBD270470022F6E710B513460A46044672
:100350001946FFF7F0FF204610BD30B50B460146A9
:1003600000202022012409E021FA02F59D4205D354
:1003700003FA02F5491B04FA02F52844151EA2F1FE
:100380000102F1DC30BD202A04DB203A00FA02F140
:10039000002070479140C2F1200320FA03F3194373
:1003A00090407047202A04DB203A21FA02F0002115
:1003B000704721FA02F3D040C2F120029140084375
:1003C00019467047064C074D06E0E06840F001030F
:1003D00094E8070098471034AC42F6D3FFF740FF8B
:1003E00088D70108A8D70108012884BF6FF0010051
:1003F00070472DE9F043A7B040F20C01C2F20001B2
:10040000942251F8201041F2C83300FB02F7C2F2E7
:1004100000036D4610FB0238D95105F10800802118
:10042000FFF790FF0120002700902846019701F078
:10043000E7FC40F68C40C4F202408169002541F49B
:10044000804181618169C4F2022501F480412291D9
:100450002299016822AE41F00101016000684FF06D
:10046000020900F00100229022984FF400702290BF
:10047000072428463146CDE923972597269400F096
:100480008DFA4FF48060CDE9220928463146CDE946
:100490002477269400F082FA404603F09FFD00285E
:1004A00018BF6FF0030027B0BDE8F08300F04ABB2F
:1004B000B0B540F25005C2F20005286810B101380D
:1004C000286001D00020B0BD40F69C40C4F202403C
:1004D000016840F2004421F40011C4F202240160DA
:1004E0002046402100F0DCF92046802100F0D8F9B8
:1004F000281D00F077FB002818BF6FF00700B0BD83
:100500002DE9F04FA9B040F25000C2F2000045F2D0
:1005100000410268C4F200014160511C01602AB12F
:100520000025284629B0BDE8F08F00BF041D2046F5
:1005300000F076FB00284FF00005F2D102AE06F184
:10054000080080214FF08009FFF7FCFE4FF40050B7
:1005500002903046039501F053FC40F68C46C4F2FD
:100560000246306840F2004840F0020030603068D7
:10057000C4F2022800F0020024902498402024AF06
:1005800024904FF0120A4FF0040B40463946CDE953
:1005900025A52795CDF8A0B000F000FA40463946D1
:1005A000CDE9249ACDE92655CDF8A0B000F0F6F9B2
:1005B000306940F400103061306900F4001001909F
:1005C0000198204603F094F930B16FF007052846F2
:1005D00029B0BDE8F08F00BF2046002100F0B8FA36
:1005E0000546002818BF6FF00705284629B0BDE86A
:1005F000F08F000010B584B08C46014640F25000E8
:10060000C2F20000041D4FF4805ECDE900232046B5
:1006100062460223CDF808E000F05CFB60B12046A2
:1006200000F0FCFA01466FF06500042908BF6FF086
:10063000030004B010BD00BF002004B010BD0000D6
:1006400010B584B08C46014640F25000C2F2000062
:10065000041D4FF4805ECDE900232046624602234C
:10066000CDF808E000F056FC60B1204600F0D6FA64
:1006700001466FF00300042908BF6FF0650004B065
:1006800010BD00BF002004B010BD0000FEE7000058
:1006900000281CBF6FF00100704780B540F21400C5
:1006A000C2F20000026940F2A800C2F20000006835
:1006B00090476FF0040101EAE07080BD00281CBF84
:1006C0006FF00100704780B540F21400C2F20000E4
:1006D000C26840F2A800C2F20000006890476FF0C4
:1006E000040101EAE07080BD00281CBF6FF001002A
:1006F000704780B540F21400C2F20000C26940F2B7
:10070000A800C2F20000006890476FF0040101EAFF
:10071000E07080BDB0B588B000281EBF6FF001004A
:1007200008B0B0BD40F20044C4F2022420460121CA
:10073000002200F001FA022000F09EF8204601217C
:10074000012200F0F9F9022000F096F85220ADF8ED
:10075000100040F20150C0F60000029040F2B1409B
:10076000C0F60000039040F24160C0F60000059022
:1007700040F2F550C0F60000069040F2AD4040F661
:10078000E805C0F60000C2F20005079002A928465D
:1007900004F04CFC20B14FF0FF3008B0B0BD00BFFA
:1007A00040F2A804C2F2000401A92846256004F022
:1007B000FFFB0028EFD101984FF20C018842EAD1EB
:1007C00040F21405C2F20005296820688847002815
:1007D000E1D154F8040BEA68214690470028DAD1A9
:1007E000002008B0B0BD000000281CBF6FF0010061
:1007F000704780B540F21400C2F20000826840F2F7
:10080000A800C2F20000006890476FF0040101EAFE
:10081000E07080BD00281CBF6FF00100704780B5FC
:1008200040F21400C2F20000026A40F2A800C2F2D4
:100830000000006890476FF0040101EAE07080BD9D
:1008400000281CBF6FF00100704780B540F2140013
:10085000C2F20000416A40F2A800C2F20000006843
:1008600088476FF0040101EAE07080BD7047000026
:1008700072B600BFFEE70000B0B5044600F062F9B2
:10088000054640F20400C2F200000078611C18BF67
:10089000044400BF00F056F9401BA042FAD3B0BD9B
:1008A0002DE9F04F82B0002974D047F67F72C0F274
:1008B0002F0202EA90220023002600270125009241
:1008C000019129E001680322B240114301606FF0F9
:1008D000030101EA540103F01C0C0144D1F820800B
:1008E0000F2404FA0CF428EA04040C628168914392
:1008F0008160416821EA0E014160C1689143C16095
:10090000019931FA05F205F1010507F1080706F131
:10091000020603F104033DD06C1E012202FA04FE1C
:100920001EEA0109EDD042F20001C4F202414FEA91
:10093000940801F1600C0F225CF828A007F0180B56
:1009400002FA0BF10AEA01028A46009901FA0BF158
:100950008A42B7D142F20002C4F20242D2F88010B9
:1009600021EA0901C2F88010D2F8841021EA0901B5
:10097000C2F88410116821EA09011160516821EA66
:10098000090151605CF8281021EA0A014CF828108E
:1009900098E700BF02B0BDE8F08F00002DE9F04FEE
:1009A00082B00C68002C00F0C38047F67F72C0F262
:1009B0002F0202EA90224FF0010900920022002645
:1009C0000027012501900FE0BCF1030F5FD100BFAC
:1009D0000C68083734FA05F305F1010506F1020643
:1009E00002F1040200F0A480A5F1010A09FA0AFE4E
:1009F00014EA0E0BECD0D1F804C04CF01004122C09
:100A00001FD16FF0030303EA5A0402F01C0300EB4A
:100A10000409D9F820C05846D1F810B00F2404FAC0
:100A200003F80BF00F042CEA080C04FA03F343EA72
:100A30000C0383460198C9F82030D1F804C04FF068
:100A4000010903680324B4406FEA0408A3430CF0CF
:100A50000304B4402343BCF1120F036017D809FA12
:100A60000CF313F0061FAFD08368CC6803EA0803C9
:100A7000B4402343836043684FEA1C1423EA0E0307
:100A800004FA0AF42343BCF1030F4360A0D0C36807
:100A90008C6803EA0803B44023435FEACC04C360D4
:100AA00096D542F200082AF00303C4F2024808EB8C
:100AB000030EDEF860C007F018040F23A3402CEAF1
:100AC000030C009B03FA04F44CEA0403CEF86030F4
:100AD000D8F800C0D1F804E04CEA0B035FEACE245A
:100AE00058BF2CEA0B03C8F80030D8F804C05FEAFE
:100AF0008E234CEA0B0458BF2CEA0B04C8F80440C0
:100B0000D8F884C05FEA8E334CEA0B0458BF2CEA55
:100B10000B04C8F88440D8F880C05FEACE334CEAB2
:100B20000B0458BF2CEA0B04C8F8804050E700BF04
:100B300002B0BDE8F08F00001823002A08BF282368
:100B4000C150704741F25C40C2F20000006870473B
:100B500090F84120202A03D190F84020012A01D1A9
:100B600002207047242280F841200268136823F095
:100B700001031360136823F480531360136819434F
:100B80001160116841F001011160202180F84110CD
:100B9000002180F8401008467047000090F841207E
:100BA000202A03D190F84020012A01D10220704769
:100BB000242280F841200268136823F001031360A7
:100BC000136823F4706343EA01211160116841F056
:100BD00001011160202180F84110002180F84010AF
:100BE00008467047002804BF0120704710B504462E
:100BF000242084F841002068016821F0010101608F
:100C0000204600F0A3FA0020606484F841002063CD
:100C100084F8420084F8400010BD0000406C70472A
:100C200090F8410070470000002804BF0120704781
:100C300010B5044690F8410028B9002084F840001F
:100C4000204600F085FA242084F8410094E8091039
:100C5000E2680168012A21F00101016023F070615E
:100C60000161816821F40041816003D14CF40041AD
:100C7000816009E04CF40441022A816004D141689A
:100C800041F4006103E000BF416821F4006141606C
:100C9000416804F1100341F0007141F400414160EA
:100CA000C16821F40041C1600ECB114341EA032128
:100CB000E269C160216A11430160016841F00101EC
:100CC000016000202021606484F84110206384F8D2
:100CD000420010BD2DE9F04F81B0044690F841006C
:100CE00020280DD1DDF828A0BAF1000F0CD0DDF8D6
:100CF0002CB0BBF1000F07D094F8400001280BD1B5
:100D0000022001B0BDE8F08F4FF400706064012054
:100D100001B0BDE8F08F00BF01201D46174689468F
:100D200084F84000FFF70EFF216806468A69120426
:100D300047D422200C9A84F8410040204FF000084C
:100D400084F84200C4F84480C4F824A0A4F82AB06F
:100D5000C4F8348093466FF39F29E8B24A6849F695
:100D6000000ACFF6004A49EA004002EA0A021044AB
:100D700000F50050486020465946324602F034FDE6
:100D8000A8B9012D08D02068390A81622046594649
:100D9000324602F029FD50B92068F9B2816220463E
:100DA000402100225B46009602F05CFC50B384F8C0
:100DB0004080012001B0BDE8F08F00BF88690004C9
:100DC000B7D520461921324602F09CFB00289ED15F
:100DD000FFF7B8FE801B21681A28EFD3886900044A
:100DE000ECD5606C40F020006064202084F8410065
:100DF000002084F8420084F84000012001B0BDE8E2
:100E0000F08F00BF608D5F4640F2000BB0F5807F31
:100E1000C0F2FF1B0AD320680BF5105350F8041FD3
:100E20004D4601EA0A02FF210BE000BF618D2068F8
:100E3000CAB250F8043F49EA024203EA0A050BF538
:100E400092332A431A434FF0FF080AF58065026087
:100E500021850FE0618D2068218550F8042FC9B2EB
:100E600049EA01412A404FF00073114319430160E0
:100E7000608D98B32046042100223B46009602F084
:100E8000F1FB00287FF443AF2068616A406A087074
:100E9000606A218D01306062481E2085618D0139B4
:100EA0006185618D0029E3D00004E1D120468021D5
:100EB00000223B46009602F0D5FB00287FF427AFC6
:100EC000608DB0F5807FC5D32068A4F8288050F8E5
:100ED000041F4A4629405B46C7E700BF2046394603
:100EE000324602F041FC00287FF411AF2068202137
:100EF000C16142684EF60003CFF600631A404260BB
:100F0000002084F8411084F8420084F8400001B0C9
:100F1000BDE8F08F2DE9F04F81B0044690F8410014
:100F200020280DD1DDF828A0BAF1000F0CD0DDF893
:100F30002CB0BBF1000F07D094F8400001280BD172
:100F4000022001B0BDE8F08F4FF400706064012012
:100F500001B0BDE8F08F00BF01201D46174689464D
:100F600084F84000FFF7EEFD216806468A69120406
:100F700049D421200C9A84F8410040204FF0000809
:100F800084F84200C4F84480C4F824A0A4F82AB02D
:100F9000C4F8348049F6004A93466FF39F29E8B2BB
:100FA000CFF6004A4A6849EA0040AAF580631A4031
:100FB000104440F0807040F400504860204659468C
:100FC000324602F011FCA8B9012D08D02068390A78
:100FD000816220465946324602F006FC50B920682C
:100FE000F9B281622046802100225B46009602F021
:100FF00039FB48B384F84080012001B0BDE8F08F90
:1010000088690004B5D520461921324602F07AFAE3
:1010100000289CD1FFF796FD801B21681A28EFD38A
:1010200088690004ECD5606C40F0200060642020EA
:1010300084F84100002084F8420084F84000012038
:1010400001B0BDE8F08F00BF608D40F20008B0F540
:10105000807FC0F2FF1809D320684B4650F8041F68
:10106000454601EA0A02FF210BE000BF618D2068BE
:10107000CAB250F8043F49EA024203EA0A034FF0B9
:1010800000751A432A43FF270260218511E000BF43
:10109000618D2068218550F8042FC9B249EA0141C9
:1010A00002EA0A024FF00073114319430160608D98
:1010B00080B320465946324602F096FB00287FF462
:1010C00046AF606A226810F8011B91626062608D11
:1010D00001386085208D01382085618D0029E6D09A
:1010E0000004E4D12046802100225B46009602F0F5
:1010F000B9FA00287FF42BAF608DB0F5807FC7D39D
:101100002068278550F8041F4A4601EA0A01434631
:10111000CAE700BF20465946324602F025FB0028A8
:101120007FF415AF20682021C16142684EF60003AC
:10113000CFF600631A404260002084F8411084F822
:10114000420084F8400001B0BDE8F08F7047000015
:101150007047000040F20041C4F203010A68D20760
:101160001CBF012070470A6822F004021043086087
:101170000020704740F20041C4F20301086840F0CB
:10118000010200200A60704740F2040041F25C4115
:10119000C2F20000C2F2000100780A681044086040
:1011A0007047000080B5032000F0A6F801F046FB70
:1011B00040F62041C4F20241096847F6D06201F0CE
:1011C0000F01C0F60002515CC84040F21001C2F2AB
:1011D00000010860042001F0EDFE0F2000F008F887
:1011E00000281CBF012080BD00F058F8002080BD01
:1011F00070B540F20406C2F200063178E1B304464D
:101200004EF21000CEF200000068400710D401F04A
:101210002BFF02281CD0012822D078BB40F21000FE
:10122000C2F20000006831784FF4FA5207E000BFC4
:1012300040F21000C2F2000000684FF47A72B2FB74
:10124000F1F1B0FBF1F001F0FDFEA8B91BE000BF29
:1012500030784FF47A71B1FBF0F04FF4004106E0C2
:1012600030784FF47A71B1FBF0F04FF4FA41B1FBF2
:10127000F0F001F0E7FE30B1012070BD002001F078
:10128000E1FE0028F8D14FF0FF3021460022002572
:1012900000F006F82846746070BD0000704700003A
:1012A00010B54EF60C5CCEF2000CDCF80030C3F347
:1012B000022E8EF00704042C28BF0424BEF1030381
:1012C0004FF0FF3E38BF00230EFA04F4A1439940CB
:1012D0000EFA03F39A43114300F00F02043A6244FA
:1012E00009010C3200F16043B0F1FF3FC8BF03F5C4
:1012F0006442117010BD00004EF60C51CEF2000198
:101300000A684FF6FF031A4060F30A2242F0806039
:1013100040F0FD700860704710B540F6284CC4F2EC
:10132000024CDCF80CE0DCF80010DCF80020C2F322
:101330000523DCF80020DCF81040DBB3C4F3CC0458
:1013400002F0100204FB02F201F0030100EE102A89
:101350000329B8EE400A6FF35F2E31D0022935D051
:1013600001295CF8281C49F20002C1F3C101C0F256
:10137000D03222FA01F101EE101A02EE103AB8EE64
:10138000411AB8EE422A9FED4F3A81EE021A02EE60
:1013900010EA20EE030AB8EE422A30EE020AB7EE57
:1013A000002A30EE022A5CF8281C22EE010A89018C
:1013B0002CD527E00021C0E90011816010BD00BFDD
:1013C00001EE103A9FED3E2A04E000BF01EE103A14
:1013D0009FED3D2AB8EE411A82EE012A01EE10EA95
:1013E0009FED383AB8EE411A20EE030A30EE010ABA
:1013F000B7EE001A30EE011A5CF8281C22EE010A42
:10140000890103D5DCF80010C90307D4002101606D
:101410005CF8281C890118D41BE000BFDCF80C1014
:10142000B7EE002AC1F3462101EE101AB8EE411AB8
:1014300031EE021A80EE011ABCEEC11A11EE101A3A
:1014400001605CF8281C890103D5DCF800108903D1
:1014500002D4002112E000BFDCF80C10B7EE002A25
:10146000C1F3064101EE101AB8EE411A31EE021A2C
:1014700080EE011ABCEEC11A11EE101A41605CF840
:10148000281C890144BFDCF800105FEA413103D415
:101490000021816010BD00BFDCF80C10B7EE002AFF
:1014A000C1F3066101EE101AB8EE411A31EE021ACC
:1014B00080EE010ABCEEC00A10EE101A816010BD69
:1014C00020BCBE4B000000390024744A10B540F621
:1014D0002C4CC4F2024CDCF810E0DCF80010DCF814
:1014E0000020C2F30523DCF80020DCF81440DBB355
:1014F000C4F3CC0402F0100204FB02F201F0030179
:1015000000EE102A0329B8EE400A6FF35F2E31D0A7
:10151000022935D001295CF82C1C49F20002C1F3E4
:10152000C101C0F2D03222FA01F101EE101A02EE2E
:10153000103AB8EE411AB8EE422A9FED4F3A81EECA
:10154000021A02EE10EA20EE030AB8EE422A30EE4A
:10155000020AB7EE002A30EE022A5CF82C1C22EEBA
:10156000010A09012CD527E00021C0E900118160A2
:1015700010BD00BF01EE103A9FED3E2A04E000BF0F
:1015800001EE103A9FED3D2AB8EE411A82EE012A93
:1015900001EE10EA9FED383AB8EE411A20EE030A48
:1015A00030EE010AB7EE001A30EE011A5CF82C1C7E
:1015B00022EE010A090103D5DCF80010C90307D4A3
:1015C000002101605CF82C1C090118D41BE000BF4D
:1015D000DCF81010B7EE002AC1F3462101EE101A14
:1015E000B8EE411A31EE021A80EE011ABCEEC11AB1
:1015F00011EE101A01605CF82C1C090103D5DCF80F
:101600000010890302D4002112E000BFDCF81010A2
:10161000B7EE002AC1F3064101EE101AB8EE411AE6
:1016200031EE021A80EE011ABCEEC11A11EE101A48
:1016300041605CF82C1C090144BFDCF800105FEA33
:10164000413103D40021816010BD00BFDCF81010CF
:10165000B7EE002AC1F3066101EE101AB8EE411A86
:1016600031EE021A80EE010ABCEEC00A10EE101A2A
:10167000816010BD20BCBE4B000000390024744ABC
:1016800080B584B04FF6FF730246C0F21F030020FE
:101690009B1A70EB010347DA6FF060439B1A70EB03
:1016A0000103C0F287806FF07C439B1A4FF0000368
:1016B0008B4180F2DD8082F080630B4300F08E81ED
:1016C00082F000630B4300F09F8182F0805211434F
:1016D00040F0AC8240F60041C4F20241D1F8E00093
:1016E000C0F3C202042A00F2C98248F20000C0F22C
:1016F000BB00DFE812F0D2029502C3029B02050094
:10170000D1F8E8200B6808689B0702F0404202D538
:10171000002A00F04F83800540F12883B2F1804F0A
:1017200000F03B8322E300BF41F6FF739B1A70EB8E
:1017300001036BDA4FF6FF739B1A4FF000038B41E6
:1017400080F2D88082F480330B4300F0878182F4EA
:1017500000330B4300F09E8182F48022114340F05D
:10176000658240F60041C4F20241D1F8DC00C0F3CA
:1017700002320020052A00F25982DFE812F07302DB
:10178000510257029B02A302070000BFD1F8E820D4
:101790000B6808689B0702F0404202D5002A00F05F
:1017A0000983800540F1E282B2F1804F00F0F582BA
:1017B000DCE200BF0F2940F3C58081F01003134322
:1017C00000F0828181F40073134300F09D8181F465
:1017D0008051114340F02A8240F60041C4F2024198
:1017E000D1F8E40000F04062B2F1806F00F0FE81B9
:1017F000002A00F06381086880074FF0000040F184
:101800001582B2F1006F00F042810FE2D2F10303C2
:101810004FF000038B41C0F2B58082F001030B430F
:1018200000F0928182F00202114340F0FF8140F605
:101830000040C4F20240D0F8D81011F0380100F096
:1018400011820268120102D5082900F01B82036888
:1018500002689B0702D5182900F00082920502D584
:10186000202900F09A82D0F8F0002839B0E200BFB9
:1018700082F400130B4300F0878182F00072114361
:1018800040F0D48140F60041C4F20241D1F8F000AA
:10189000D1F8F020920700F4407206D5B2F5807FAF
:1018A00002BF4FF4004004B080BDD1F8F000000149
:1018B00006D5B2F5007F02BF4FF4FA4004B080BDF8
:1018C000086880034FF0000040F1B081B2F5407F1E
:1018D00040F0AC81C86910F4785F00F0CF81C8692E
:1018E00047F64001C0F30520C0F27D11B1FBF0F0D6
:1018F00004B080BD82F400530B4300F05B8182F49E
:101900008042114340F0928140F60040C4F2024010
:10191000D0F8E41001F44021B1F5802F00F0668189
:10192000002900F09F8102680068920703D5B1F595
:10193000002F00F03F8200F400720020B1F5402F2C
:1019400054E200BF82F000530B4300F0558181F058
:101950000401114340F06A8140F60040C4F20240A5
:10196000D0F8E8100068800301F4407040F18081F5
:10197000002840F07D8147F64000C0F27D1004B0A1
:1019800080BD00BF82F004030B4300F0518182F45C
:101990008052114340F04A8140F60040C4F20240B8
:1019A000D0F8E01001F0E061B1F1807F00F06A81D1
:1019B000002900F08380036802689B0703D5B1F11A
:1019C000407F00F04B81920503D5B1F1806F00F0AC
:1019D000E481D0F8F00001F17B41F9E140F60040EC
:1019E000C4F20240D0F8E810026801F0300192041D
:1019F00040F14E81002940F04B8146F60040C0F294
:101A0000DC2004B080BD00BF40F60041C4F20241BA
:101A1000D1F8E00000F00702042A00F22F8148F21A
:101A20000000C0F2BB00DFE812F03801FB00290122
:101A300001010500D1F8E8200B6808689B0702F057
:101A4000404202D5002A00F0B581800540F18E8128
:101A5000B2F1804F00F0A18188E100BF40F6004163
:101A6000C4F20241D1F8E40000F04072B2F1807F8C
:101A700000F0BC80002A00F0F580086880074FF075
:101A8000000040F1D380B2F1007F40F0CF800868C1
:101A900090E100BF40F60041C4F20241D1F8DC0001
:101AA000C0F302220020052A00F2C080DFE812F015
:101AB0000600B800BE0002010A01500104B0BDE8F2
:101AC000804000F097BE00BF40F60040C4F20240E4
:101AD000D0F8E41001F03001102900F0DE80026837
:101AE000120102D5202900F0CD800068302900F4D1
:101AF00000524FF0000004BF46F60040C0F2DC2068
:101B0000002A08BF104691E040F60041C4F20241AD
:101B1000D1F8E800D1F8F02000F00800920705D5D0
:101B2000002802BF4FF4004004B080BDD1F8F0108F
:101B3000002818BF4FF4FA4001F00061002908BFE7
:101B4000084604B080BD00BF40F60040C4F2024029
:101B5000D0F8D81011F0070100F0A6800268120139
:101B600002D5012900F08E80036802689B0701D529
:101B7000032973D0920502D5042900F00E81D0F814
:101B8000F000053924E100BF40F60040C4F20240F5
:101B9000D0F8E81001F00701022927D0012900F050
:101BA0009B80002940F09E8004B0BDE8804000F09A
:101BB000C1BD00BF40F60040C4F20240D0F8E410BE
:101BC00001F44031B1F5803F10D000294AD00268BD
:101BD0000068920703D5B1F5003F00F0EB8000F4F8
:101BE00000720020B1F5403F00E100BF01A8FFF7FF
:101BF0006DFC039804B080BD40F60041C4F2024180
:101C0000D1F8E000C0F38212042A37D848F200006D
:101C1000C0F2BB00DFE802F04104320A8C0000BFD2
:101C200001A8FFF753FC019804B080BD04B080BD4B
:101C300040F60040C4F20240D0F8D81011F4E07130
:101C400010D00268120101D540291BD00368026838
:101C50009B0740F19D80C02940F09A80C2F3C100EB
:101C6000AAE000BF04B0BDE8804000F07BBD00BF2B
:101C7000B0F5007F06D0B0F5807F0ED0002004B014
:101C800080BD00BF01A8FFF721FC029804B080BD11
:101C90000268920132D5102930D101A8FFF73CFB30
:101CA000029804B080BD00BF04B0BDE8804000F0E1
:101CB0007DBD00BFD1F8F0004FF4004101EA803053
:101CC00004B080BDD1F8F0004FF4FA41000101EA00
:101CD000E07004B080BD00BF04B0BDE8804000F0FB
:101CE000ADBD00BF026892035ED503295CD147F603
:101CF0004000C0F27D1004B080BD00BFD0F8F020DD
:101D0000920705D5202902BF4FF4004004B080BDE2
:101D1000D0F8F000302900F000624FF0000008BF5A
:101D20004FF4FA40002A08BF104604B080BD00BF3F
:101D3000D1F8E8200B6808689B0702F0404200D504
:101D4000C2B3800512D5B2F1804F26D00EE000BF9D
:101D5000D1F8E8200B6808689B0702F0404200D5E4
:101D600042B3800502D5B2F1804F16D00868B2F1B7
:101D7000004F00F400314FF0000004BF47F6400070
:101D8000C0F27D10002908BF084604B080BD00BF26
:101D9000920519D5B1F5807F16D140F60010C0F23A
:101DA0003D0004B080BD00BF02680068920719D5ED
:101DB000042917D1C0F3C10049F20001C0F2D031AB
:101DC00021FA00F004B080BDD0F8F000A1F5A071B8
:101DD00010F00200B1FA81F14FEA511118BFC803A7
:101DE00004B080BD00F400720020052904BF40F655
:101DF0000010C0F23D00002A08BF104604B080BDAC
:101E00002DE9F0470446006840F62848C101C4F2B5
:101E1000024807D5D8F8C010226B21F04041114389
:101E2000C8F8C010C00714D0606BC11E032909D3C5
:101E300040B1012814D104F1080002F003F906466C
:101E400040B9606BD8F8B01021F007010843C8F81A
:101E5000B00000262078800706D4354622E000BF77
:101E6000012620788007F8D5A06B6FF0020101EB06
:101E7000F001354603290AD34FEAF000354630B168
:101E8000012831D104F1080002F0DCF805462F46A4
:101E90004DB9D8F8B000A16B20F0380008430025F8
:101EA000C8F8B00037462078400722D5E06B6FF0C5
:101EB000020101EBB011032909D34FEAB01030B190
:101EC000012837D104F1080002F0BCF805462E467F
:101ED00085B9D8F8B000E16B20F4E0700843002524
:101EE000C8F8B00005E000BF0125012720784007B1
:101EF000DCD43E466078C00621D5206C6FF002012C
:101F000001EB3061032909D34FEA306030B1012879
:101F10003CD104F1080002F095F805462F467DB942
:101F2000D8F8B800216C20F0E06008430025C8F81C
:101F3000B80004E0012501266078C006DDD43746EC
:101F40006078800627D5606C6FF0010101EB3041AD
:101F5000022909D34FEA304030B1012810D104F1F1
:101F6000080002F06FF805462E465DB9D8F8BC00AF
:101F7000616C20F4403008430025C8F8BC000AE03A
:101F8000012501266078400609D424E001250127B7
:101F900060788006D7D43E46607840061BD5A06C9A
:101FA0006FF0010101EBB041022909D34FEAB040C3
:101FB00030B1012832D104F1080002F043F805469F
:101FC0002F464DB9D8F8BC00A16C20F4402008433E
:101FD0000025C8F8BC003746A078C00723D0E06CC5
:101FE000002818BFB0F1007F0CD12E46E5B9D8F813
:101FF000BC00E16C20F0407008430025C8F8BC002C
:1020000011E000BFB0F1807F30D104F1080002F090
:1020100019F805462E463DB9E9E700BF012501271D
:10202000A078C007DBD13E466079C00623D5206D7D
:10203000002818BFB0F1006F0CD12F46E5B9D8F8D1
:10204000BC00216D20F0406008430025C8F8BC00AA
:1020500011E000BFB0F1806F62D104F1080001F01F
:10206000F1FF05462F463DB9E9E700BF01250126EE
:102070006079C006DBD43746D4E9000140F61C4A3B
:10208000C4F2024A09050CD5DAF8001021F4004127
:10209000CAF80010D4F88010DAF800201143CAF80A
:1020A000001080031BD5606D6FF0020101EB302141
:1020B000032909D34FEA302030B1012834D104F18B
:1020C000080001F0BFFF05462E464DB9D8F8B40010
:1020D000616D20F4E06008430025C8F8B4003E4676
:1020E000A078400725D5A06D6FF0020101EB3031DB
:1020F000032909D34FEA303030B101282AD104F145
:10210000080001F09FFF05462F469DB9D8F8B4009E
:10211000A16D20F4E04008430025C8F8B40008E0B1
:1021200001250127A8E700BF01250126A078400767
:10213000D9D43746A07880062BD5606E05280FD8F5
:10214000022815D02946DDB1D4E90002920525D434
:1021500033E000BF01250127A0788006EDD418E008
:1021600001250121D4E90002920517D425E000BF22
:1021700004F1080001F066FF0546002D2946E3D171
:10218000D8F8C000616E20F0070008430025C8F8A9
:10219000C0003946D4E9000292050ED5A26E42F085
:1021A0000803082B0ED1A94645B9D8F8C030002540
:1021B00023F008031A43C8F8C0208946800106D4DA
:1021C000484621E001254FF001098001F8D54FF67E
:1021D0000847CFF6FF775AF8070040F001004AF8A9
:1021E0000700FEF7AFFC06465AF80700C00707D104
:1021F000FEF7A8FC801B0228F6D90325032003E084
:10220000002D284600F00E8121684A011BD5226E60
:102210006FF0010303EB3213022B0AD34FEA3213A0
:102220003BB1012B2ED1D8F8003043F40033C8F86D
:1022300000302F4645B9D8F8C030002523F03003D0
:102240001A43C8F8C020074608011FD5E06EC11E1A
:1022500002290BD3012800F0BB80002840F0C28087
:10226000D8F8000040F40030C8F800002E4675B9D8
:10227000D8F8B800E16E20F0070008430025C8F840
:10228000B80003E0012501270801DFD43E46E078CD
:10229000C0061FD5206F6FF0020101EBF00102298B
:1022A0000DD34FEAF000012800F0A080002840F094
:1022B000A780D8F8000040F40030C8F800002F468E
:1022C0004DB9D8F8B800216F20F038000843002538
:1022D000C8F8B8003746E07880061FD5606F6FF009
:1022E000020101EBB01102290DD34FEAB010012811
:1022F00000F08A80002840F09180D8F8000040F477
:102300000030C8F800002E464DB9D8F8B800616F0B
:1023100020F4E07008430025C8F8B8003E46207954
:10232000400721D5E06D58B1B0F5007F0CD0B0F575
:10233000807F49D1D8F8000040F40030C8F8000090
:102340002F4695B907E000BF04F1080001F07AFEBE
:1023500005462F464DB9D8F8C000E16D20F4407015
:1023600008430025C8F8C00037462079C0065CBF86
:102370003846BDE8F087E06F30280CD020280FD019
:1023800010281CBF0120BDE8F087D8F8000040F4F9
:102390000030C8F8000055B12846BDE8F08700BFFE
:1023A00004F1080001F04EFE0546002DF4D1D8F8E6
:1023B000BC00E16F20F0300008433D46C8F8BC0087
:1023C0002846BDE8F08700BF01250127CDE700BF03
:1023D00004F1080001F036FE0546002D2E467FF47C
:1023E00056AF45E70125012651E700BF04F108007B
:1023F00001F028FE0546002D2F467FF46CAF60E704
:102400000125012767E700BF04F1080001F01AFE6B
:102410000546002D2E467FF482AF76E70125012682
:102420007DE700BFD8F8C80010F4407016D0A16F47
:10243000884211D0D8F8C800D8F8C81020F44070ED
:1024400041F48031C8F8C810D8F8C81021F48031A0
:10245000C8F8C810C8F8C800C00721D1A06FDAF8C2
:1024600000104FF6CF7300F4407221F47C51C0F29B
:10247000FF0303EA1013B2F5407F08BF1943CAF8FF
:102480000010D8F8C8106FF31F3021F44071C8F85D
:10249000C810D8F8C81000250843C8F8C8008FE64F
:1024A000FEF750FB064641F288370325D8F8C800EE
:1024B0008007D3D4FEF746FB801BB8424FF00300E1
:1024C000F4D9A1E62DE9F04381B0002800F0CD80D9
:1024D00042F20008C4F202080446D8F800000D4693
:1024E00000F00F0088420DD2D8F8000020F00F0055
:1024F0002843C8F80000D8F8000000F00F00A842F8
:1025000040F0B380206840F62047C106C4F202477D
:102510000CD561693A68702303EA1222914205D909
:102520003A6822F4E04242EA0121396001070CD501
:1025300021693A68702303EA1212914205D93A6878
:1025400022F4E06242EA0111396041070AD5E168EC
:102550003A6802F07002914204D93A6822F070029F
:102560001143396081070AD5A1683A6802F00F0269
:10257000914204D93A6822F00F0211433960C00732
:1025800068D1206881070AD5A1683A6802F00F0275
:10259000914204D23A6822F00F0211433960D8F810
:1025A000001001F00F01A9420CD9D8F8001021F059
:1025B0000F012943C8F80010D8F8001001F00F01EE
:1025C000A94252D141070AD5E1683A6802F0700287
:1025D000914204D23A6822F0700211433960010737
:1025E0000CD521693A68702303EA1212914205D290
:1025F0003A6822F4E06242EA01113960C0060CD563
:1026000060693968702202EA1121884205D239686E
:1026100021F4E04141EA0020386000F00FF9396808
:1026200047F6D06201F00F01C0F60002525C40F2A2
:102630000801C2F20001096840F2100320FA02F218
:10264000C2F2000308461A6001B0BDE8F043FEF78D
:10265000CFBD00BF606801280CD002285ED00328DF
:1026600062D157F8201C890108D4012001B0BDE8CF
:10267000F08300BF57F8201C8905F6D557F8041CD5
:1026800021F00301084347F8040CFEF75BFA616888
:102690000646032941F288392BD0022937D0012977
:1026A00010D100BF57F8040C00F0180008283FF4C0
:1026B00068AFFEF747FA801B48454FF00300F1D999
:1026C0000DE000BF57F8040C10F0180F3FF459AF9D
:1026D000FEF738FA801B48454FF00300F2D901B0ED
:1026E000BDE8F083FEF72EFA801B48454FF003004B
:1026F000F5D857F8040C00F018001828F2D140E77C
:10270000FEF720FA801B48454FF00300E7D857F842
:10271000040C00F018001028F2D132E757F8201C02
:102720008903A2D5AAE700BF57F8201C89079CD5CA
:10273000A4E7000080B500F081F840F62041C4F223
:102740000241096847F6D06201F00F01C0F60002AD
:10275000515C01F01F01C84040F21001C2F20001BB
:10276000086080BD80B500F069F840F62041C4F2F1
:1027700002410A6847F6D06302F00F02C0F6000378
:102780009A5C02F01F02D04040F21002C2F2000236
:102790001060096847F6E062C1F30211C0F600025A
:1027A000515C01F01F01C84080BD000080B500F001
:1027B00045F840F62041C4F202410A6847F6D0636A
:1027C00002F00F02C0F600039A5C02F01F02D04034
:1027D00040F21002C2F200021060096847F6E0629F
:1027E000C1F30221C0F60002515C01F01F01C84094
:1027F00080BD000080B500F021F840F62041C4F211
:1028000002410A6847F6D06302F00F02C0F60003E7
:102810009A5C02F01F02D04040F21002C2F20002A5
:102820001060096847F6E062C1F30231C0F60002A9
:10283000515C01F01F01C84080BD000080B540F62A
:102840000041C4F20241C86900F01800082802BF24
:1028500040F60010C0F23D0080BDC86910F0180FAE
:1028600034D0C86900F01800102802BF47F64000B5
:10287000C0F27D1080BDC86900F01800182849F228
:102880000000C0F2D03066D1D1F828E08A6AC2F3E5
:10289000052C8A6A8B6BBCF1000F04BF002080BD41
:1028A000C2F30012C3F3CC0303FB02F200EE102AC2
:1028B0000EF00302B8EE400A032A15D0012A17D100
:1028C0000A68920618D49FED251A1DE00868800654
:1028D00049F20000C0F2D03058BF80BD0968C1F392
:1028E000C101C84080BD00BF9FED1B1A0CE000BFB6
:1028F0009FED1B1A08E000BF0A68C2F3C102D04076
:1029000001EE100AB8EE411A02EE10CA486BB8EE9A
:10291000422A6FF35F2081EE021A02EE100A9FED49
:10292000113AB8EE422A20EE030A486B30EE020A52
:10293000B7EE002AC0F3462030EE020A013021EE45
:10294000000A01EE100AB8EE411A80EE010ABCEE50
:10295000C00A10EE100A80BD20BCBE4B0024744C8F
:102960000024744A000000392DE9F04381B00028AA
:1029700000F0168140F6004740F6F0490446C4F2E4
:102980000247C4F20249F86959F8C81C227800F0DD
:102990001808D00601F0030629D5B8F1080F1BD09E
:1029A000B8F1180F08BF022E16D0E1693868002967
:1029B00000F0668140F480703860FEF7C3F8054689
:1029C000386880050CD4FEF7BDF8401B02284FF094
:1029D0000300F5D95EE200BFE069002800F0E08066
:1029E000B869216A20F47C1040EA0140B86120787F
:1029F000C00717D0B8F1100F10D0B8F1180F08BFEA
:102A0000032E0BD06068B0F5A02F5FDA002800F02D
:102A1000A181B0F5803F00F0C181C3E1606800286A
:102A200000F0BE802078800775D5B8F1000F21D066
:102A3000E068B8F1180F08BF012E55D0396800289A
:102A400000F06481206921F018010843386038687B
:102A500040F001003860FEF775F8054638688007D9
:102A600052D4FEF76FF8401B02284FF00300F5D94F
:102A700010E200BFE068002800F092803968206909
:102A800001F01801814231D0396821F01801084362
:102A90003860FFF7D3FE396A47F6D06201F00F01C4
:102AA000C0F60002515C40F2100201F01F0120FA52
:102AB00001F140F20800C2F200000068C2F2000218
:102AC0001160FEF795FB00286AD10FE000F05E81EF
:102AD000B0F5A81F40F06681386840F48020386067
:102AE000386840F4801058E1002859D0FEF72AF8E1
:102AF000054600BF3868800706D4FEF723F8401B60
:102B00000228F7D965E000BF3869616920F4FE004A
:102B100040EA014038612078000745D4207840071A
:102B20005CD42078800600F17D80A56AA5B3B8F159
:102B3000180F40F0C98059F8C81C59F8BC0C012D79
:102B40002ED0E26A01F00303934229D1C1F305219B
:102B5000226B914224D1626B01466FF35F21013AEF
:102B600091421DD1A16BC0F3462201398A4217D18F
:102B7000E16BC0F3064201398A4211D1216CC0F3E6
:102B80000660013988420BD159F8B80CE16CC0F3EA
:102B9000CC00884240F0F281002001B0BDE8F08313
:102BA000012001B0BDE8F083A169D9F80000002937
:102BB00050D040F08060C9F80000FDF7C3FF054623
:102BC000D9F800000001A9D4FDF7BCFF401B022882
:102BD000F6D9032001B0BDE8F08300BF4FF62446CC
:102BE000CFF6FF76B859C00712D1B85940F00100AE
:102BF000B851FDF7A7FF0546B859C00708D1FDF742
:102C0000A1FF401B02284FF00300F5D942E100BFAD
:102C1000A068042846DC002800F0E080012800F0CD
:102C20000F8113E1616A3868002900F0818040F467
:102C300080503860FDF786FF054600BF3868800485
:102C40003FF573AFFDF77EFF401B02284FF00300F6
:102C5000F4D91FE120F08060C9F80000FDF772FF91
:102C6000054600BFD9F8000000017FF557AFFDF71A
:102C700069FF401B02284FF00300F3D90AE100BFAF
:102C800020F480703860FDF75DFF054638688005E8
:102C90007FF5ADAEFDF756FF401B02284FF0030055
:102CA000F4D9F7E0052800F0BF80852840F0CE80F9
:102CB000D9F8000040F00400C9F80000D9F800007D
:102CC00040F08000BAE000BF386820F080703860C3
:102CD000FDF738FF022D05460CD100BF3868800192
:102CE00040F1DC80FDF72EFF401B02284FF003006F
:102CF000F4D9CFE03868800140F13281FDF722FF3E
:102D0000401B02284FF00300F4D9C3E021F001007A
:102D10003860FDF717FF0546386880077FF5FBAE82
:102D2000FDF710FF401B02284FF00300F4D9B1E07B
:102D300020F480503860FDF705FF054638688004B0
:102D40007FF5F3AEFDF7FEFE401B02284FF00300B7
:102D5000F4D99FE0386820F480303860386820F477
:102D600080103860386820F480203860FDF7EAFE73
:102D7000054600BF386880037FF554AEFDF7E2FEDC
:102D8000401B64284FF00300F4D983E0386840F416
:102D900080203860386820F480103860386840F44B
:102DA00080300AE0386820F480303860386820F4D9
:102DB00080203860386820F480103860FDF7C2FE4B
:102DC000054600BF386880033FF52CAEFDF7BAFE1C
:102DD000401B64284FF00300F4D95BE0D9F80000F1
:102DE00020F00100C9F80000D9F8000020F08000B0
:102DF000C9F80000D9F8000020F00400C9F800006C
:102E0000FDF7A0FE054641F2883600BFD9F8000064
:102E100080077FF586AEFDF795FE401BB0424FF070
:102E20000300F3D936E000BFD9F8000040F00400F9
:102E3000C9F80000D9F8000020F08000C9F80000AF
:102E4000D9F8000040F0010010E000BFD9F8000000
:102E500020F00100C9F80000D9F8000020F00400BB
:102E6000C9F80000D9F8000020F08000C9F800007F
:102E7000FDF768FE054641F2883600BFD9F800002C
:102E800080073FF54EAEFDF75DFE401BB0424FF0B0
:102E90000300F3D901B0BDE8F08300BF59F8C80CB6
:102EA00043F6037104F12C0388430ECB084340EA38
:102EB0000220A16B49F8C80C4FF47E4202EB41217D
:102EC000E26B581E4FF4FE0389B203EB02426FF32C
:102ED0005F20084402F4FE01226C4FF0FE4303EB36
:102EE0000262084402F0FE41084449F8BC0C59F85B
:102EF000C80C20F0100049F8C80CE06CC00049F87C
:102F0000B80C59F8C80C40F0100049F8C80C59F832
:102F1000C80C616C20F00C00084349F8C80C59F843
:102F2000C80CA16C20F02000084349F8C80C59F8DF
:102F3000C80C40F4803049F8C80C386840F0807004
:102F40003860FDF7FFFD0446386880013FF524AE88
:102F5000FDF7F8FD001B02284FF00300F4D999E7B4
:102F600059F8C80C4FF6FC71CFF6F871084049F8D3
:102F7000C80C002001B0BDE8F08300BF59F8C80CB0
:102F800020F0100049F8C80CFDF7DCFD0546FDF700
:102F9000D9FDA842FBD0E06CC00049F8B80C59F844
:102FA000C80C40F0100049F8C80C002001B0BDE882
:102FB000F0830000042888BF7047DFE800F00315A5
:102FC000273839004EF21000CEF20000016821F0DF
:102FD0000401016040F6E440C4F20240016821F0BF
:102FE0000C010160704700BF4EF21000CEF20000ED
:102FF0000168012221F00401016040F6E440C4F2BE
:103000000240016862F38301016070474EF21000D4
:10301000CEF200000168022221F00401016040F6B6
:10302000E440C4F20240016862F38301016070472A
:103030004EF21000CEF20000016841F00401016080
:1030400070470000411E0020B0EB116F1CBF012033
:1030500070474EF21002CEF200025160906011688B
:1030600041F00301116070474EF21000CEF20000F3
:103070000068400744BF0420704740F6E440C4F2B3
:103080000240006800F00C01081FB0FA80F040090F
:10309000082908BF0220704790F88410012904BF56
:1030A000022070472421C0F8881002681168136854
:1030B00023F00103136021F00053002141661360E7
:1030C0002022C0F8882080F884100846704700004D
:1030D000B0B590F88420012A04BF0220B0BD24229C
:1030E000C0F888200268D0F864E0D2F800C0136805
:1030F000BEF1000F23F001031360936823F06063B7
:1031000041EA0301916019D0936891684DF21C6EF9
:10311000490FC0F6010E4DF224651EF80140C0F6BD
:103120000105C3F34263695CE400B4FBF1F11EF8EE
:103130000340EB5CE500B5FBF3F301E00121012363
:10314000A0F86A102021A0F86830C2F800C0C0F8CA
:103150008810002180F884100846B0BDB0B590F802
:103160008420012A04BF0220B0BD2422C0F8882098
:103170000268D0F864E0D2F800C01368BEF1000F16
:1031800023F001031360936823F0604341EA0301D5
:10319000916019D0936891684DF21C6E490FC0F68A
:1031A000010E4DF224651EF80140C0F60105C3F37F
:1031B0004263695CE400B4FBF1F11EF80340EB5C90
:1031C000E500B5FBF3F301E001210123A0F86A104B
:1031D0002021A0F86830C2F800C0C0F88810002193
:1031E00080F884100846B0BD10B5E0B10446D0F8B0
:1031F000880028B9002084F88400204600F028F8D0
:103200002420C4F888002068A16A0268002922F0FE
:10321000010202601CBF204601F048F8204601F080
:1032200071F9012802D1012010BD00BF2168486852
:1032300020F490404860886820F02A008860086880
:1032400040F0010220460A60BDE8104001F0A2B83B
:10325000704700002DE9F04381B00446D0F88C009F
:1032600020281EBF022001B0BDE8F0830E460029D1
:103270004FF001001CBF1746002A03D101B0BDE882
:10328000F08300BF206899468168490603D58168AC
:1032900021F04001816000202221C4F89000C4F890
:1032A0008C10E066FDF74EFCA4F85C70A4F85E702C
:1032B000A1688046B1B1B1F1805F17D0B1F5805FF0
:1032C00018D12069FF270028014618BF314608BFE2
:1032D00040F2FF17A4F86070002818BF002635469A
:1032E0000E4618E0206938B9FF2706E0206918B1BA
:1032F0003F2702E0002700E07F270025A4F8607048
:1033000009E000BF384025F8020B0026B4F85E0043
:103310000138A4F85E00B4F85E0088B12046202190
:1033200000224346CDF8009001F0C4F980B920682E
:10333000002E406AE6D0384006F8010BE6E700BFF1
:1033400000202021C4F88C1001B0BDE8F08300BF3C
:1033500003202021C4F88C1001B0BDE8F0830000E8
:103360002DE9F0410446D0F8880020281CBF022037
:10337000BDE8F0810F4600294FF001001CBF164642
:10338000002A01D1BDE8F08120681D468168090648
:1033900003D5816821F0800181604FF00008212071
:1033A000C4F89080C4F88800FDF7CCFBA4F8546002
:1033B000A4F85660A1680646B1F5805F05D1206982
:1033C000002814BF3846B8460746B4F85600D8B1AE
:1033D000681C1BD0002D71D121680AE017F8010B81
:1033E0008862B4F856000138A4F85600B4F85600C4
:1033F00078B3C869000659D5002FEFD138F8020B11
:1034000000276FF35F20EBE7216822E0216802E0EC
:10341000C869000609D4C869000606D4C869000650
:103420005CBFC8695FEA0060F2D51FB117F8010BF5
:1034300005E000BF38F8020B00276FF35F208862B9
:10344000B4F856000138A4F85600B4F85600002825
:10345000E1D1C869400623D445B3681C10D100BF30
:10346000C869400616D4C869400613D4C869400626
:1034700010D4C86940064FF00000F1D511E000BF3C
:10348000FDF760FB801BA84212D820680168C06964
:103490004006F5D500202021C4F88810BDE8F08151
:1034A00000202021C4F88810BDE8F081FDF74AFB18
:1034B00003202021C4F88810BDE8F081216800BFF6
:1034C000C869000608D4FDF73DFB801BA842EFD871
:1034D00021680868F4E700BF17B117F8010B04E092
:1034E00038F8020B00276FF35F208862B4F85600AB
:1034F0000138A4F85600B4F856000028E0D1A8E737
:10350000FEE7000070B50446006815468369DA06D8
:1035100002D40021002266E00E461021C1618169BB
:1035200089065CD4711C50D036BBFDF70BFB2068BC
:10353000426894F8421083691B040BD512F4804250
:1035400008D1202906D0416841F480414160FDF74F
:10355000F9FA054620688169890605D4FDF7F2FA73
:10356000401B1A28F6D328E081698906DDD536E0AC
:1035700020688169890632D4FDF7E4FA401BB04225
:10358000F6D92068426894F8421083691B040BD571
:1035900012F4804208D1202906D0416841F48041CC
:1035A0004160FDF7CFFA0546206880698006DFD4C8
:1035B000FDF7C8FA401B1A28F6D32068012281695A
:1035C000242110E08169890609D48169890606D41D
:1035D000816989065CBF81695FEA8161F2D520213A
:1035E000C161012204218369DE0505D54FF4807293
:1035F00041F00101C26101225E0507D49B050CD494
:10360000002A04BF002070BD0CE000BF41F008019B
:103610004FF480629B05C26104D541F002014FF472
:103620000072C2618269920744BF0022826282698D
:10363000D20703D1826942F00102826142684EF6EC
:103640000003CFF600631A404260606C0843606478
:10365000202084F84100002084F8420084F84000D3
:10366000012070BD2DE9F0410446006880690840E2
:10367000401AB0FA80F04009904271D1DDF818800C
:1036800015460E461F46581C30D0002F42D100BFB1
:10369000204600214246FFF735FF00281CBF0120CD
:1036A000BDE8F081FDF74EFA206881693140891B41
:1036B000B1FA81F14909A94242D080693040801BAA
:1036C000B0FA80F04009A8421CBF0020BDE8F0819C
:1036D000DEE700BF206880693040801BB0FA80F0D0
:1036E0004009A8421CBF0020BDE8F08120464FF0F1
:1036F000FF314246FFF706FF0028EBD00120BDE86E
:10370000F08100BF80693040801BB0FA80F0400932
:10371000A84225D1204639464246FFF7F3FE00284D
:10372000ECD1FDF70FFAA0EB08012068B942E9D906
:1037300081693140891BB1FA81F14909A942E1D17E
:10374000606C40F020006064202084F8410000207C
:1037500084F8420084F840000120BDE8F08100BFF9
:103760000020BDE8F081000070B504460068806963
:10377000800637D415460E4619B92AE080698006BE
:1037800030D4204631462A46FFF7BCFE40BBFDF749
:10379000D9F9411B2068B142F0D981698906EDD47D
:1037A000606C40F020006064202084F8410000201C
:1037B00084F8420084F84000012070BDFDF7C2F992
:1037C000206881698906EBD58069800644BF0020A6
:1037D00070BD204600212A46FFF794FE0028EDD058
:1037E000012070BD002070BD70B50446006880697E
:1037F00080074DD415460E46481C1DD04EBB00BF59
:10380000204600212A46FFF77DFE00281CBF01202C
:1038100070BDFDF797F920688169890729D580690E
:10382000800744BF002070BDEAE700BF20688069C0
:10383000800744BF002070BD20464FF0FF312A466C
:10384000FFF760FE0028F1D0012070BD806980077D
:103850001ED4204631462A46FFF754FE0028F3D1F5
:10386000FDF770F9411B2068B142EFD981698907E2
:10387000ECD4606C40F020006064202084F84100AB
:10388000002084F8420084F84000012070BD00BF91
:10389000002070BD70B586B0002540F68C400595BF
:1038A000C4F20240016840F2004441F002010160AC
:1038B0000168C4F2022401F002010091009901683C
:1038C000002241F0010101600068012100F00100C7
:1038D0000090009820460126FDF72EF901A9204608
:1038E000CDE90166CDE90355FDF758F806B070BD86
:1038F00070B50446002045F20041012244F2E53350
:10390000C4F20001C1F2C003C4E90202C4E9040028
:10391000C4E9060020622046C4E90013FDF784F9DB
:10392000054620460021FDF713F9064620460021F2
:10393000FDF734F93043284318BF012070BD000063
:1039400080B50020FDF706FC002818BFFCF790FFAB
:10395000FDF710FC002808BF80BDBDE88040FCF7E3
:1039600087BF000080B50020FCF73EFD08A004F0F2
:10397000BDF80AA004F082FA0020FCF7CBFE002874
:1039800008BF80BD0CA004F079FA00BFFEE700BFBD
:103990001B5B32481B5B324A0000000053656E73AC
:1039A0006F7220696E697469616C697A6174696F9C
:1039B0006E2E2E2E00000000435553544F4D5F5283
:1039C000414E47494E475F53454E534F525F496EF4
:1039D0006974206661696C65640000002DE9F04F30
:1039E0008BB009A900200024FCF7FEFE40F2BC06C3
:1039F000C2F2000600203146FCF760FE012031468D
:103A000041F8100F1E200B1D0A2215C300200C6167
:103A1000FCF73EFE00200121FCF7FCFE40F2E4052D
:103A20004DF2DA694DF2646A4DF2F96B41F2C83435
:103A3000C2F20005C0F60109C0F6010AC0F6010B8A
:103A4000C2F2000420E000BF0020FCF7F9FED6E936
:103A50000701B0FA80F04009B1FA81F14909C6E9DD
:103A6000070106F110010020FCF712FE00200121E1
:103A7000FCF7D0FE4DF2F360C0F601001B2104F00C
:103A800035F80120FCF7F8FE00202946FCF72CFE53
:103A900020B12068C0698006F3D52AE23069042786
:103AA0000338022838BF08274DF2ED60C0F6010048
:103AB0001B2104F01BF84DF25D70C0F6010004F00C
:103AC000DDF94DF22270C0F6010004F0D7F94DF295
:103AD0002C60C0F6010004F0D1F94DF22F70C0F651
:103AE000010004F0CBF90FF2584004F0C7F90FF2CF
:103AF0006C4004F0C3F90FF2884004F0BFF90A20CB
:103B000004F0B6F90FF28C4004F0B8F90FF29440CB
:103B10000FF2AC410FF2B84203F0E8FFD6E907011B
:103B200008430DD04DF256604DF2FB614DF20E721E
:103B3000C0F60100C0F60101C0F6010203F0D6FF95
:103B40000FF2944004F09AF92868002800F0BC8134
:103B5000781EC1B208914FF0FF3151FA80F14FF059
:103B6000000807916FF0010151FA80F106916FF0A2
:103B7000020151FA80F104916FF0030151FA80F1D2
:103B800005916FF0040151FA80F103916FF0050186
:103B900051FA80F102916FF0060151FA80F0019024
:103BA00016E000BF4DF28670C0F6010004F066F921
:103BB00040F2E405C2F2000508EB07004FFA80F876
:103BC000286840F2BC068045C2F2000680F07C8185
:103BD000002400BF484603F089FF013460B2B842B8
:103BE000F8DB0A2004F044F9002400BF504603F03B
:103BF0007DFF013460B2B842F8DB4DF28670C0F64A
:103C0000010004F03BF90898404400EB800005EB0C
:103C10008000416871B1D0E90212B1F5FA7FA7BF07
:103C20004DF28E60C0F601004DF2AD60C0F60100AD
:103C300006E000BF4DF2CB60C0F6010059465A467F
:103C400003F054FF0798049E404400EB800005EB0E
:103C50008000416871B1D0E90212B1F5FA7FB9BFB5
:103C60004DF2AD60C0F601004DF28E60C0F601006D
:103C700006E000BF4DF2CB60C0F6010059465A463F
:103C800003F034FF0698404400EB800005EB800011
:103C9000416869B1D0E90212B1F5FA7FB9BF4DF2BE
:103CA000AD60C0F601004DF28E60C0F6010005E087
:103CB0004DF2CB60C0F6010059465A4603F016FF9C
:103CC00006EB080000EB800005EB8004606888B11B
:103CD000D4E90212B1F5FA7FB9BF4DF2AD60C0F67A
:103CE00001004DF28E60C0F6010003F0FFFE3006C9
:103CF0000BD18FE04DF2CB60C0F6010059465A4619
:103D000003F0F4FE300600F085800598404400EB97
:103D1000800005EB8000416871B1D0E90212B1F575
:103D2000FA7FB9BF4DF2AD60C0F601004DF28E6072
:103D3000C0F6010006E000BF4DF2CB60C0F6010006
:103D400059465A4603F0D2FE059840B2012861DB7D
:103D50000398404400EB800005EB8000416869B1A6
:103D6000D0E90212B1F5FA7FB9BF4DF2AD60C0F6ED
:103D700001004DF28E60C0F6010005E04DF2CB600F
:103D8000C0F6010059465A4603F0B0FE039840B20F
:103D900001283FDB0298404400EB800005EB8000E7
:103DA000416869B1D0E90212B1F5FA7FB9BF4DF2AD
:103DB000AD60C0F601004DF28E60C0F6010005E076
:103DC0004DF2CB60C0F6010059465A4603F08EFE14
:103DD000029840B201281DDB0198404400EB8000AE
:103DE00005EB8000416869B1D0E90212B1F5FA7FB4
:103DF000B9BF4DF2AD60C0F601004DF28E60C0F665
:103E0000010005E04DF2CB60C0F6010059465A466C
:103E100003F06CFE4DF28670C0F6010004F02EF83F
:103E200040F2BC01C2F20001D1E9070108433FF4AE
:103E3000C3AE04F14006089C40F2BC05C2F2000586
:103E40000FE000BF4DF2CB60C0F6010059465A4664
:103E500003F04CFE60B2013C0028A6F114067FF787
:103E6000A1AE30680028EDD0286AD8B196ED040ADA
:103E70004DF27760BDEEC00AC0F6010010EE101AD8
:103E800003F034FEE869B8B196ED030A4DF2C5605F
:103E9000BDEEC00AC0F6010010EE101A03F026FEB7
:103EA000D8E700BF4DF28360C0F60100594603F029
:103EB0001DFEE8690028E7D14DF2D560C0F601008B
:103EC000594603F013FEC5E7002400BF484603F03F
:103ED0000DFE013460B2B842F8DB0A2003F0C8FFDF
:103EE00041F2C834C2F200042068C06980067FF540
:103EF000C8AD00208DF82B0020460DF12B010122CA
:103F00004FF0FF33FFF7A6F99DF82B0063283FF42D
:103F1000B1AD73283FF498AD72287FF4B2AD0020A4
:103F2000FCF78EFC3069013803283FF69AAD4DF25C
:103F3000FC51C0F6010151F82000306191E500BF4D
:103F400020277227203A206368616E6765207265BA
:103F5000736F6C7574696F6E000000002027732703
:103F6000203A20656E61626C65207369676E616CD2
:103F700020616E6420616D6269656E7400000000EE
:103F800020276327203A20636C6561722073637277
:103F900065656E0043656C6C20466F726D617420C0
:103FA0003A0A0000201B5B33383B353B31306D252E
:103FB0003230731B5B306D203A20253230730A009B
:103FC00044697374616E6365205B6D6D5D00000014
:103FD00053746174757300000A000000F0B581B07D
:103FE00043F6000204464FF46120C4F201020021AE
:103FF0000C23C4E900202046C4E90211C4E90413DB
:10400000C4E90611C4E90811A162FFF7EDF80546FD
:1040100020460021FFF7A2F8064620460021FFF7C0
:1040200057F807462046FFF737F838433043284310
:1040300018BF012001B0F0BDFEE70000FEE7000060
:104040007047000070B540F62C46C4F2024656F8A0
:104050002C1C044621F0806046F82C0CFCF772FD05
:10406000054600BF56F82C0C000107D5FCF76AFD89
:10407000401B022884BF032070BDF3E7306843F67D
:104080000371884394E80E00084340EA0220E16887
:1040900030604FF47E4202EB41212269581E4FF4FA
:1040A000FE0389B203EB02426FF35F20084402F47F
:1040B000FE0162694FF0FE4303EB0262084402F026
:1040C000FE41084430613068A16920F00C000843CB
:1040D00030603068E16920F0200008433060606A99
:1040E00031680843306030684FF6F87120F01000F6
:1040F00030607069226A884340EAC20070613068AB
:1041000040F01000306056F82C0C40F0806046F80B
:104110002C0CFCF717FD044656F82C0C000144BF8C
:10412000002070BDFCF70EFD001B032824BF0320F8
:1041300070BDF1E770470000FDF726B810B59CB0E0
:1041400008A840F6140404302421C4F20244FCF709
:10415000F9F80020CDE90600CDE90400CDE9020020
:1041600054F8040C40F0300044F8040C54F8040CEB
:1041700000F03000019001982068000709D4206801
:1041800000075CBF20685FEA007002D42068000767
:10419000F2D5102008904FF480700F90202001215C
:1041A0001090022014917D21CDE91200CDE9151067
:1041B000CDE9170008201990002408A8CDE91A4479
:1041C000FEF7D2FB10B172B6FEE700BF1F200290CF
:1041D0000320CDE9030402A80521CDE90544079495
:1041E000FEF770F910B172B6FEE700BF42F20000B0
:1041F000C4F202000168022262F3051101601CB0E2
:1042000010BD00004EF6885CCEF2000CDCF8000019
:10421000012240F47000CCF8000040F60040C4F2E7
:10422000024002600022C261026203684EF6E3218E
:10423000CFF6E2211940016040F28021C0F2011165
:104240008262C26241638263C1630264016821F4D5
:104250008021016002654FF0006142F21C00C4F24F
:1042600002004CF8801C50F8041C4A0F062A05D89E
:1042700001F06041B1F1404F18BF70470168C907B4
:104280000BD042F63B21C0F6190140F8101C46F64F
:104290007F61C4F65D4140F8101C016841F00201E5
:1042A0000160016841F001010160704780B5816AD9
:1042B0000A070DD4CA0716D18A071FD44A0728D483
:1042C000CA0631D48A063AD44A0658D542E000BF1D
:1042D0000268D0F838C0536823F4004343EA0C0363
:1042E0005360CA07E8D00268D0F82CC0536823F4A2
:1042F000003343EA0C0353608A07DFD50268D0F825
:1043000030C0536823F4803343EA0C0353604A07F8
:10431000D6D50268D0F834C0536823F4802343EA2A
:104320000C035360CA06CDD50268D0F83CC0936830
:1043300023F4805343EA0C0393608A06C4D50268D1
:10434000D0F840C0936823F4005343EA0C03936011
:104350004A0614D50268D0F844C05368BCF5801FE3
:1043600023F4801343EA0C03536008D1D2F804C04D
:10437000D0F848E02CF4C00343EA0E03536009066A
:1043800058BF80BD0168C06C4A6822F40022104307
:10439000486080BDB0B582B004460020C4F89000EB
:1043A000FCF7D0FB216805460A68120737D56FF085
:1043B0007E4C20464FF4001100222B46CDF800C061
:1043C00000F078F950B300BF206850E8000F216872
:1043D00020F0800041E80002DAB1206850E8000FC8
:1043E000216820F0800041E8000292B1206850E886
:1043F000000F216820F0800041E800024AB12068E7
:1044000050E8000F216820F0800041E80002002AF7
:10441000DAD12020C4F8880060E000BF2168086875
:10442000400761D56FF07E4C20464FF4800100229A
:104430002B46CDF800C000F03DF9002854D000BF55
:10444000206850E8000F216820F4907041E80002D5
:10445000E2B1206850E8000F216820F4907041E834
:1044600000029AB1206850E8000F216820F4907093
:1044700041E8000252B1206850E8000F216820F4A2
:10448000907041E80002002ADAD100BF206850E8AD
:10449000020F216820F0010041E80202DAB1206831
:1044A00050E8020F216820F0010041E8020292B1B9
:1044B000206850E8020F216820F0010041E8020264
:1044C0004AB1206850E8020F216820F0010041E85D
:1044D0000202002ADAD12020C4F88C000320002137
:1044E00084F8841002B0B0BD2020C4F88800C4F85D
:1044F0008C000020E0662067002184F8841002B060
:10450000B0BD000070B504460168806804F10C0578
:104510002CCD18432843E6690B6846F6F315CCF614
:10452000FF7530432B401843086048684FF2FF4541
:1045300020F440501043486042F20042A069C4F2A7
:10454000004291421CBF236A18438B68C1F2FF15D9
:104550002B4018438860C86A636A20F00F00184334
:1045600043F2FF73C4F201039942C86210DC44F2C3
:104570000040C4F20000814218D044F60000C4F2AA
:104580000000814256D10420914216D155E000BF6F
:1045900043F60000C4F2010081420BD0914249D1A0
:1045A0004FF48050914208D147E000BF0220914271
:1045B00003D142E0012091423FD00021FDF760F895
:1045C000B6F5004F1ED1002864D0616A47F6E86254
:1045D000C0F6000232F811106268B0FBF1F0510829
:1045E00001EB4000B0FBF2F04FF6EF72A0F11001CA
:1045F000914253D84FF6F071C0F342020840104484
:1046000043E000BF002847D0616A47F6E862C0F681
:10461000000232F811106268B0FBF1F000EB5200BA
:10462000B0FBF2F04FF6EF72A0F1100191422CD9DD
:10463000012536E000209142BFD100210025FDF781
:104640001FF870B3616A47F6E862C0F6000232F8FC
:1046500011106268B0FBF1F002EB420101258842C3
:104660001FD3110388421CD8010E000210EB520028
:1046700041F100010023FBF70DFE4FF60052A0F5BB
:104680004071C0F20F0291420AD221680025C86031
:1046900007E000BF002504E0002502E0012500E05E
:1046A00001254FF00110A066002128466167A1672F
:1046B00070BD00002DE9F041804600681546C269D2
:1046C0000E461140891BB1FA81F14909A94240F017
:1046D0008380069C34B3611C2AD100BFC16931407C
:1046E000891BB1FA81F14909A94275D1C1693140EB
:1046F000891BB1FA81F14909A9426DD1C1693140E3
:10470000891BB1FA81F14909A94265D1C1693140DA
:10471000891BB1FA81F14909A9421CBF0020BDE8FB
:10472000F081DBE7FCF70EFA0320BDE8F08100BF63
:104730001F4607E0C0693040801BB0FA80F0400996
:10474000A84249D1FCF7FEF9C01BA04284BF032058
:10475000BDE8F081D8F8000001684907EAD5402E8D
:1047600018BF802EE6D0C169090739D4C16909058F
:10477000E0D54FF40061016250E8000FD8F8001056
:1047800020F4907041E80002002A5FD0D8F80000C1
:1047900050E8000FD8F8001020F4907041E80002B3
:1047A000002A53D0D8F8000050E8000FD8F80010C5
:1047B00020F4907041E80002002A47D0D8F80000A9
:1047C00050E8000FD8F8001020F4907041E8000283
:1047D000E2B3D8F80000CFE70020BDE8F08100BFC9
:1047E0000821016250E8000FD8F8001020F4907002
:1047F00041E80002002A00F09780D8F8000050E855
:10480000000FD8F8001020F4907041E80002002A50
:1048100000F08A80D8F8000050E8000FD8F80010A7
:1048200020F4907041E80002002A7DD0D8F8000002
:1048300050E8000FD8F8001020F4907041E8000212
:10484000002A71D0D8F80000CCE700BF4FF6FE7008
:10485000CEF6FF70D8F8001051E8021FD8F80020FB
:10486000014042E80213F3B1D8F8001051E8021FEA
:10487000D8F80020014042E80213A3B1D8F8001094
:1048800051E8021FD8F80020014042E8021353B15A
:10489000D8F8001051E8021FD8F80020014042E883
:1048A0000213002BD6D1D8F86C0001282CD1D8F8EF
:1048B000000050E8000FD8F8001020F0100041E888
:1048C00000020AB3D8F8000050E8000FD8F8001032
:1048D00020F0100041E80002B2B1D8F8000050E822
:1048E000000FD8F8001020F0100041E800025AB183
:1048F000D8F8000050E8000FD8F8001020F01000A1
:1049000041E80002002AD2D120200021C8F88C0002
:10491000C8F86C10C8F87410C8F89000032088F824
:104920008410BDE8F08100BF4FF6FE70CEF6FF7038
:10493000D8F8001051E8021FD8F80020014042E8E2
:104940000213F3B1D8F8001051E8021FD8F8002084
:10495000014042E80213A3B1D8F8001051E8021F49
:10496000D8F80020014042E8021353B1D8F80010F3
:1049700051E8021FD8F80020014042E80213002B42
:10498000D6D1D8F86C0001282CD1D8F8000050E816
:10499000000FD8F8001020F0100041E800020AB320
:1049A000D8F8000050E8000FD8F8001020F01000F0
:1049B00041E80002B2B1D8F8000050E8000FD8F882
:1049C000001020F0100041E800025AB1D8F80000B1
:1049D00050E8000FD8F8001020F0100041E8000265
:1049E000002AD2D12020C8F88C0000200821C8F865
:1049F0006C00C8F87400C8F8901088F88400012092
:104A0000BDE8F081FEE700002DE9F04782B00D46D9
:104A1000014600286FF0010018BF002D02D102B03E
:104A2000BDE8F087286801F11808FF280AD1404640
:104A3000002102F0CDFB002818BF4FF0FF3002B07C
:104A4000BDE8F0870DF10701404601F06BFD9DF8D0
:104A500007C040F2E851BCF1000FC2F2000100F0C3
:104A6000818095E80D00ACF101040CF0030E032CDD
:104A70004FF000043ED301F12F060CF0FC094FF07B
:104A8000010A00256F1C06F8197CAF1C06F8255C8E
:104A900006F80D7CEF1C043506F827AC06F8260C4A
:104AA00006F8244C46F82F2C46F82B3C06F81BAC95
:104AB00006F81A0C06F8184C46F8232C46F81F3C4A
:104AC00006F80FAC06F80E0C06F80C4C46F8172C3E
:104AD00046F8133C06F8017C06F803AC06F8020C15
:104AE000347046F80B2C46F8073C4D4506F130066D
:104AF000C8D12C46BEF1000F36D004EB44074FF06E
:104B0000010901EB87054FF0000ABEF1010FAC72FD
:104B100085F80890687285F80BA041F827206B6033
:104B200022D0651C05EB4507BEF1020F01EB87069D
:104B300041F82720B57286F80890707286F80BA0AD
:104B4000736011D0A71C07EB470601EB860541F8FF
:104B50002620AF720127687200202F72E8726B6006
:104B600002E000BF4FF0000C0CEB4C0001EB8000AA
:104B7000827A42F080028272404601F0EBFF0546E5
:104B80004046012102F024FB284318BF4FF0FF30BC
:104B900002B0BDE8F08700002DE9F04381B0044683
:104BA00000286FF001001CBF0D46002902D101B0A2
:104BB000BDE8F08328780138C0B2032882BF6FF0C7
:104BC000010001B0BDE8F083C70041F21000C4F25B
:104BD0004000F84004F11806D5E90198C1B230460A
:104BE00002F0BCFCA0B940F20130C0F20130F84044
:104BF000C1B2304602F076FC50B93046494602F068
:104C000037FB28B95FFA88F1304602F051FC28B131
:104C10004FF0FF3001B0BDE8F08300BFD5E90301DC
:104C2000002818BF012084F8DC0A0020002918BFE2
:104C3000012184F8DD1A01B0BDE8F0836FF00300B4
:104C40007047000010B5002804BF6FF0010010BDD0
:104C5000044690F8D80A012802D16068804718B14C
:104C60004FF0FF3010BD00BF002084F8D80A10BDFF
:104C7000024600286FF0010018BF002900D17047DC
:104C8000108908600020704700286FF0010018BFED
:104C9000002901D1704700BF402201230020C1E953
:104CA0000023C1E9020370472DE9F04F85B00028C9
:104CB0006FF001061CBF8846002903D1304605B0BD
:104CC000BDE8F08F054690F8D90A002844D095F841
:104CD000DA0A01281AD1696900208DF81100884785
:104CE000064605F118070DF1110441F2883900BF9D
:104CF0003846214600F024FF9DF81100012831D0EC
:104D000068698047801B4845F2D310E06869002637
:104D10008DF81260804705F118000DF1120100F0C6
:104D20000FFF9DF81200012803D0686980476FF0DB
:104D30000206002EC2D105F118040DF11301204620
:104D400001F0F0FB40B941F26046C2F20006204695
:104D5000314601F0BBF848B14FF0FF36304605B0A0
:104D6000BDE8F08F0026002EA8D1E4E79DF81310CF
:104D7000002908460291C8F8001000F0C7809FED96
:104D8000660A06F2844106F5717206F5117B00236E
:104D900044460095CDF8048011E000BF039B0298C3
:104DA0000133DDF8048041F26046143401310232EF
:104DB00083420BF1040BC2F2000600F0A780F0184A
:104DC000039303EB830390F8047108EB83031F71D3
:104DD00090F80431002BE1D000F5827A41F2604076
:104DE000039B009FC2F2000000EB830097F8DD3ABE
:104DF00097F8DC7A012B00F1040E37D1002500234F
:104E000009E000BFC9F80C809AF800000133834222
:104E100005F10405C2D232F9130004EB8309B0EEA8
:104E2000401AC9F8080060190BEB8306012F04BF74
:104E30009EED001AB8EE411A80ED041A4FF00008FA
:104E400096ED001AB8EE411A80ED051A11F803C06C
:104E5000BCF1090F18BFBCF1050FD3D0BCF1000F96
:104E600014BFE0464FF0FF08CCE700BF012F29D167
:104E70004FF00009002500270AE000BF0026DE6091
:104E80009AF800000137874205F10405BFF486AFA8
:104E900032F9170004EB870398609EED001A601941
:104EA000B8EE411AC0F8149080ED041AC85D0928C4
:104EB000E4D005284FF00006E1D0002814BF0646D4
:104EC000FF26DCE74FF0000C002300250AE000BFBE
:104ED0000026FE609AF800000135854203F10403C4
:104EE000BFF45CAF32F9150004EB8507B860E01839
:104EF000C0E904CC485D0928EAD005284FF0000637
:104F0000E7D0002814BF0646FF26E2E70026304619
:104F100005B0BDE8F08F00BF0000000010B582B002
:104F20000C46014600286FF0010018BF002C01D18B
:104F300002B010BD01F118000DF1070100F090FF63
:104F40009DF80710002818BF0021C9B218BF4FF004
:104F5000FF30216002B010BD10B5002804BF6FF013
:104F6000010010BD044690F8D80A20B904F11800D9
:104F700001F0EAFA10B14FF0FF3010BD002001211E
:104F800084F8DD0AC4F8D90A84F8D81A10BD0000E4
:104F900080B5D0F808C000880123E047C0B280BDCA
:104FA00080B5D0F808C000889BB2E047C0B280BD91
:104FB000F0B581B00C46014600208DF803008DF855
:104FC000020000296FF0010018BF002C02D101B0CF
:104FD000F0BD00BF01F11805284647F6FF71002219
:104FE000002700F033F906460DF1030228460021A0
:104FF000FFF7CEFF06430DF1020228460121FFF71D
:10500000C7FF0643284647F6FF71022200F01EF94B
:1050100030439DF803109DF802200CBF42EA01279F
:105020004FF0FF30276001B0F0BD000000286FF0A6
:10503000010218BF002901D11046704780B5D1E99F
:105040000023D1E903CE026043600B89C0E903CE9F
:105050000381D1F814C00B89C0F814C00383D1E9CF
:10506000033C49694162C0E9073CBDE880400AB1A0
:10507000104700BF4FF0FF3210467047B0B5002810
:1050800004BF6FF00100B0BDCDB204461830294610
:1050900002F0D4F8002812BF4FF0FF302581002025
:1050A000B0BD0000024600286FF001000ED00129BB
:1050B00088BF704780B502F11800C9B202F0FCF851
:1050C000002818BF4FF0FF30BDE880407047000057
:1050D000B0B5E0B1044618300D4602F0B5FA00282C
:1050E0001CBF4FF0FF30B0BD681E0121032884F8BB
:1050F000D91A09D8DFE800F0020E141A40F20110A4
:10510000A4F8DA0A0020B0BD002084F8D90A6FF0B4
:105110000100B0BD0120A4F8DA0A0020B0BD00BF34
:105120004FF48070A4F8DA0A0020B0BD0020A4F883
:10513000DA0AB0BD10B5002804BF6FF0010010BD41
:10514000044690F8D90A20B104F1180002F04AFC94
:1051500010B14FF0FF3010BD002084F8D90A10BD07
:10516000B0B5002963D00139012202EB91020C296C
:1051700002F0030C02D2002419E000BF22F0030366
:10518000002400BF50F804E001199EFA8EF202518B
:105190004A68D1F808E0CD6812BA4A609EFA8EF2E9
:1051A0008A602ABA043B04F11004CA60EAD1BCF157
:1051B000000F3CD044F00101415C025D090441EA6A
:1051C000026144F00202825CBCF1010F41EA02215B
:1051D00044F00302825C1144015128D0211D41F0AA
:1051E0000102825C435C120442EA036241F0020362
:1051F000C35CBCF1020F42EA032241F00303C35C2B
:105200001A44425008BFB0BD04F1080141F0010248
:10521000825C435C120442EA036241F00203C35C15
:1052200042EA032241F00303C35C1A444250B0BD7A
:1052300070B50446C0680D4680470646E068804762
:10524000801BA842FAD3002070BD000080B582B058
:10525000D0F804C000888DF807200DF10702012363
:10526000E047C0B202B080BD80B5D0F804C000886D
:105270009BB2E047C0B280BD2DE9F04F99B000F578
:10528000A2690E46044600F5A46500F120014846D7
:105290004FF4F472FBF72FF8102E40F05B8240F2CF
:1052A0000F4041F20801C0F20400C0F21071C5E9DC
:1052B000000148464FF4F471FFF752FFD4F85C0543
:1052C000D4F84CE51390D4F86405D4F85025169022
:1052D000D4F86805D4F870151590D4F86C05D4F896
:1052E0008475724410441297B4F95076B4F952267A
:1052F00008441895D4F85455D4F858651190B4F969
:105300006006D4F87435D119B4F96226D4F878C59A
:10531000084471191044B4F954261944B4F95636A6
:10532000179001EB0C00B4F964161A44B4F9663610
:1053300011441090C818D4F860B514901398D4F89C
:105340007CA5D4F880850BEB0002B4F958365244A2
:10535000B4F95A0602EB0801B4F968261844B4F906
:105360006A36104418441390DDE91520D4F8887586
:10537000B4F95C36D4F88CE51044129AD4F89065F0
:105380001044B4F95E2638441290B4F96C061A44FD
:10539000B4F96E361044D4F8AC2518441690D4F8FD
:1053A000B00506EB0E031A44B4F97076B4F9723600
:1053B00010440D90B4F98006DA19B4F98236D4F8A5
:1053C00094C50F91D4F898151044D4F8B425184416
:1053D0001590D4F8B80561441144B4F97436B4F9A1
:1053E000762608440B90B4F98406D118B4F98626C1
:1053F0000844D4F89C85D4F8A01510440E90D4F835
:10540000BC054144D4F8C0250844B4F97816B4F971
:105410007A36104409905818B4F98816B4F98A26D7
:10542000084410440C90D4F8A405D4F8A815D4F876
:10543000C4250844D4F8C8151044B4F97C26B4F93E
:105440007E360844B4F98C1607909818B4F98E2665
:10545000084410440A90D4F8CC05D4F8D015D4F8F8
:10546000EC250844D4F8F0151044B4F99026B4F9AA
:1054700092360844B4F9A01605909818B4F9A226FB
:10548000084410440890D4F8D405D4F8D815D4F8BA
:10549000F4250844D4F8F8151044B4F99426B4F966
:1054A00096360844B4F9A41603909818B4F9A626C1
:1054B000084410440690D4F8DC05D4F8E015D4F87C
:1054C000FC250844D4F800161044B4F99826B4F921
:1054D0009A3600EB0108B4F9A8169818B4F9AA2670
:1054E000084410440490D4F8E405D4F8E815D4F83E
:1054F00004260844D4F808161044B4F99C26B4F9DC
:105500009E364718B4F9AC169818B4F9AE2608447C
:1055100010440290D4F80C06D4F81016D4F82C26B7
:105520000844D4F830161044B4F9B026B4F9B25691
:1055300000EB010EB4F9C016A818B4F9C22608444D
:1055400010440190D4F81406D4F81816D4F8342670
:1055500008441044D4F83816B4F9B426B4F9B65651
:105560004318A818B4F9C426B4F9C656104446190D
:10557000D4F81C06D4F82026D4F83C56104428440D
:10558000D4F84026B4F9B856B4F9BAB602440BEBD5
:105590000500B4F9C856B4F9CAB6284400EB0B0CA0
:1055A000D4F82406D4F82856D4F8441628440844DD
:1055B000D4F84816920801448908C4F88815179948
:1055C000C4F88425149A01EB917102EB9272890858
:1055D000B4F9BC56B4F9BEA6179191081491139969
:1055E0000AEB0500B4F9CC56169A01EB91712844E8
:1055F000119D02EB92728908AD0816919108C4F8CA
:105600004C55109D139115990E9AAD0801EB9171AF
:10561000C4F850550F9D02EB92728908AD081591A0
:105620009108C4F85455129D12910C990A9A01EBF5
:105630009171AD0802EB9272C4F858550D9D89081E
:1056400011919108AD0810910899C4F85C550B9D13
:10565000069A01EB9171AD0802EB9272C4F86055A5
:10566000099D89080F919108AD080E910499029A3D
:10567000C4F86455079DB4F9CEA601EB917102EB15
:105680009272AD085044C4F86855059D4FEA910ADE
:1056900091080D910199AD08C4F86C55039D01EB7B
:1056A0009171AD084FEA910B0CEB9C7100EB90707F
:1056B000C4F870554FEA9805BF0806EB9672C4F817
:1056C0007455C4F878754FEA9E079B084FEA910815
:1056D000850804F28C50C021C4F87C75C4F880356C
:1056E000970804F5CE66FAF72DFE1798A4F86E56C3
:1056F000A4F850061498189DA4F852061698602134
:10570000A4F854061398A4F864A6A4F856061598AD
:10571000A4F868B6A4F858061298A4F86A76A4F813
:105720005A061198A4F86C86A4F85C061098A4F8A0
:105730005E060F98A4F860060E98A4F862060D980D
:10574000A4F866063046FAF7FDFD48464FF4F471BA
:10575000FFF706FD04F5A36148464FF4F272FAF72D
:10576000CAFD40F203114FF07060CEF20141C5E96D
:105770007401204642F618614A464FF4F473FFF76D
:1057800073FD80460027002620464FF430514A46DC
:105790000423FFF705FC40EA070520460A21FFF72E
:1057A00047FDC72E45EA00070ED894F812057E285B
:1057B00012D894F8110501360328E5D147EA08000C
:1057C000C0B219B0BDE8F08F47F0010747EA080002
:1057D000C0B219B0BDE8F08F47F0420747EA0800B1
:1057E000C0B219B0BDE8F08F2DE9F04F89B000F5D7
:1057F000A2650E46044600F5027128464FF4427237
:10580000FAF779FD102E40F0388140F20F4141F255
:10581000080204F5A360C1F20471C0F21072C0E97D
:10582000001247F600024FF00061C0F60002C0E926
:10583000062128464FF44271FFF792FCD4F8440544
:10584000D4F84875D4F86485D4F84C35D4F850B5FC
:10585000D4F85415D4F868250744D4F86CC54744E7
:105860000691D4F85815D4F870A5B8180BEB0307B7
:1058700067440591D4F85C15029007EB0A0001908B
:10588000DDE905300891D4F86015D4F874950791D6
:10589000D4F8781503EB000CD4F89C050391009024
:1058A0000398CC4460440690DDE90730D4F87C15B9
:1058B000D4F884E50491D4F8882503EB0008049813
:1058C000D4F8A4958044D4F8A8057244D4F880157F
:1058D000D4F894A5D4F898754A44D4F8B435104453
:1058E000D4F88CB5D4F8906541440790D4F8B80545
:1058F00057440891D4F8AC153B44D4F8A0C5D4F86B
:10590000B0E506EB0B0203EB000B0098D4F8BC6586
:105910001144D4F8C025714460440591D4F8C4E51D
:10592000D4F8C815304400EB020AD4F8E425D4F8C2
:10593000CC75D4F8D03571441144D4F8EC25D4F8A2
:10594000D4C5D4F8D865D4F8E8E53B44D4F8F0756C
:105950001A44D4F8F435D4F8DC0501EB0E09D4F878
:10596000E01502EB070806EB0C07D4F8F8653B449A
:10597000D4F8FC7503EB060ED4F800660844D4F89E
:1059800004163844D4F8087600EB060CD4F82466E4
:1059900039443144D4F82866D4F80C76D4F810365B
:1059A0008A19D4F82C663B44D4F8307633443B440F
:1059B000D4F81466D4F81876D4F834063E44311876
:1059C000D4F81C66D4F82006D4F838763044D4F8DD
:1059D0003C6639443044029ED4F84076B608C4F898
:1059E0004465019E3844B608C4F84865069E4FEAEF
:1059F0009E07B608C4F84C65089E9208B608C4F81D
:105A00005065079E8908B608C4F85465059E80084D
:105A1000B608C4F858654FEA9B06C4F85C654FEABF
:105A20009A06C4F860654FEA9906C4F864654FEABF
:105A30009806C4F86C754FEA9C07C4F874259A0858
:105A4000C4F87C15C4F8800504F28450C021C4F861
:105A50006865C4F87075C4F87825FAF773FC2846B1
:105A60004FF44271FFF77CFB4FF6A040C0F20100FB
:105A7000C4F844060020C4F88805204642F6F841E0
:105A80002A464FF44273FFF7EFFB804600270026BB
:105A900020464FF430512A460423FFF781FA07438A
:105AA00020460A21FFF7C4FBC72E47EA00070FD89C
:105AB00094F812057E2813D894F8110501360328AE
:105AC000E6D147EA0800C0B209B0BDE8F08F00BFD8
:105AD00047F0010747EA0800C0B209B0BDE8F08FFF
